{
  "_format": "hh-sol-artifact-1",
  "contractName": "WavePortal",
  "sourceName": "contracts/WavePortal.sol",
  "abi": [
    {
      "inputs": [],
      "stateMutability": "payable",
      "type": "constructor"
    },
    {
      "anonymous": false,
      "inputs": [
        {
          "indexed": true,
          "internalType": "address",
          "name": "from",
          "type": "address"
        },
        {
          "indexed": false,
          "internalType": "string",
          "name": "message",
          "type": "string"
        },
        {
          "indexed": false,
          "internalType": "uint256",
          "name": "timestamp",
          "type": "uint256"
        }
      ],
      "name": "NewWave",
      "type": "event"
    },
    {
      "inputs": [],
      "name": "getAllWaves",
      "outputs": [
        {
          "components": [
            {
              "internalType": "address",
              "name": "waver",
              "type": "address"
            },
            {
              "internalType": "string",
              "name": "message",
              "type": "string"
            },
            {
              "internalType": "uint256",
              "name": "timestamp",
              "type": "uint256"
            }
          ],
          "internalType": "struct WavePortal.Wave[]",
          "name": "",
          "type": "tuple[]"
        }
      ],
      "stateMutability": "view",
      "type": "function"
    },
    {
      "inputs": [],
      "name": "getTotalWaves",
      "outputs": [
        {
          "internalType": "uint256",
          "name": "",
          "type": "uint256"
        }
      ],
      "stateMutability": "view",
      "type": "function"
    },
    {
      "inputs": [
        {
          "internalType": "address",
          "name": "",
          "type": "address"
        }
      ],
      "name": "lastWavedAt",
      "outputs": [
        {
          "internalType": "uint256",
          "name": "",
          "type": "uint256"
        }
      ],
      "stateMutability": "view",
      "type": "function"
    },
    {
      "inputs": [
        {
          "internalType": "string",
          "name": "_message",
          "type": "string"
        }
      ],
      "name": "wave",
      "outputs": [],
      "stateMutability": "nonpayable",
      "type": "function"
    }
  ],
  "bytecode": "0x60806040526200004f6040518060400160405280601a81526020017f4465706c6f79696e672050617961626c6520436f6e74726163740000000000008152506200007760201b6200060a1760201c565b606444426200005f9190620001c4565b6200006b919062000261565b60018190555062000308565b62000117816040516024016200008e919062000184565b6040516020818303038152906040527f41304fac000000000000000000000000000000000000000000000000000000007bffffffffffffffffffffffffffffffffffffffffffffffffffffffff19166020820180517bffffffffffffffffffffffffffffffffffffffffffffffffffffffff83818316178352505050506200011a60201b60201c565b50565b60008151905060006a636f6e736f6c652e6c6f679050602083016000808483855afa5050505050565b60006200015082620001a8565b6200015c8185620001b3565b93506200016e8185602086016200022b565b6200017981620002f7565b840191505092915050565b60006020820190508181036000830152620001a0818462000143565b905092915050565b600081519050919050565b600082825260208201905092915050565b6000620001d18262000221565b9150620001de8362000221565b9250827fffffffffffffffffffffffffffffffffffffffffffffffffffffffffffffffff0382111562000216576200021562000299565b5b828201905092915050565b6000819050919050565b60005b838110156200024b5780820151818401526020810190506200022e565b838111156200025b576000848401525b50505050565b60006200026e8262000221565b91506200027b8362000221565b9250826200028e576200028d620002c8565b5b828206905092915050565b7f4e487b7100000000000000000000000000000000000000000000000000000000600052601160045260246000fd5b7f4e487b7100000000000000000000000000000000000000000000000000000000600052601260045260246000fd5b6000601f19601f8301169050919050565b61110080620003186000396000f3fe608060405234801561001057600080fd5b506004361061004c5760003560e01c8063449d46c0146100515780639a2cdc081461006d578063a42a46631461008b578063bd43a908146100bb575b600080fd5b61006b60048036038101906100669190610950565b6100d9565b005b610075610456565b6040516100829190610cd2565b60405180910390f35b6100a560048036038101906100a09190610927565b6104a1565b6040516100b29190610cd2565b60405180910390f35b6100c36104b9565b6040516100d09190610bb9565b60405180910390f35b42610384600360003373ffffffffffffffffffffffffffffffffffffffff1673ffffffffffffffffffffffffffffffffffffffff168152602001908152602001600020546101279190610db4565b10610167576040517f08c379a000000000000000000000000000000000000000000000000000000000815260040161015e90610cb2565b60405180910390fd5b42600360003373ffffffffffffffffffffffffffffffffffffffff1673ffffffffffffffffffffffffffffffffffffffff1681526020019081526020016000208190555060016000808282546101bd9190610db4565b925050819055506102046040518060400160405280601681526020017f257320776176656420772f206d6573736167652025730000000000000000000081525033836106a3565b600260405180606001604052803373ffffffffffffffffffffffffffffffffffffffff16815260200183815260200142815250908060018154018082558091505060019003906000526020600020906003020160009091909190915060008201518160000160006101000a81548173ffffffffffffffffffffffffffffffffffffffff021916908373ffffffffffffffffffffffffffffffffffffffff16021790555060208201518160010190805190602001906102c3929190610807565b50604082015181600201555050606460015444426102e19190610db4565b6102eb9190610db4565b6102f59190610eeb565b60018190555060326001541061040357600066038d7ea4c68000905047811115610354576040517f08c379a000000000000000000000000000000000000000000000000000000000815260040161034b90610c92565b60405180910390fd5b60003373ffffffffffffffffffffffffffffffffffffffff168260405161037a90610ba4565b60006040518083038185875af1925050503d80600081146103b7576040519150601f19603f3d011682016040523d82523d6000602084013e6103bc565b606091505b5050905080610400576040517f08c379a00000000000000000000000000000000000000000000000000000000081526004016103f790610c72565b60405180910390fd5b50505b3373ffffffffffffffffffffffffffffffffffffffff167f6728ef66814a55b797863bf8ffcd954b19cbca4ed4f0e6cf04c980705fd82c36824260405161044b929190610c42565b60405180910390a250565b60006104996040518060400160405280600f81526020017f546f74616c2077617665733a2025730000000000000000000000000000000000815250600054610742565b600054905090565b60036020528060005260406000206000915090505481565b60606002805480602002602001604051908101604052809291908181526020016000905b8282101561060157838290600052602060002090600302016040518060600160405290816000820160009054906101000a900473ffffffffffffffffffffffffffffffffffffffff1673ffffffffffffffffffffffffffffffffffffffff1673ffffffffffffffffffffffffffffffffffffffff16815260200160018201805461056690610e88565b80601f016020809104026020016040519081016040528092919081815260200182805461059290610e88565b80156105df5780601f106105b4576101008083540402835291602001916105df565b820191906000526020600020905b8154815290600101906020018083116105c257829003601f168201915b50505050508152602001600282015481525050815260200190600101906104dd565b50505050905090565b6106a08160405160240161061e9190610bdb565b6040516020818303038152906040527f41304fac000000000000000000000000000000000000000000000000000000007bffffffffffffffffffffffffffffffffffffffffffffffffffffffff19166020820180517bffffffffffffffffffffffffffffffffffffffffffffffffffffffff83818316178352505050506107de565b50565b61073d8383836040516024016106bb93929190610bfd565b6040516020818303038152906040527fe0e9ad4f000000000000000000000000000000000000000000000000000000007bffffffffffffffffffffffffffffffffffffffffffffffffffffffff19166020820180517bffffffffffffffffffffffffffffffffffffffffffffffffffffffff83818316178352505050506107de565b505050565b6107da8282604051602401610758929190610c42565b6040516020818303038152906040527f9710a9d0000000000000000000000000000000000000000000000000000000007bffffffffffffffffffffffffffffffffffffffffffffffffffffffff19166020820180517bffffffffffffffffffffffffffffffffffffffffffffffffffffffff83818316178352505050506107de565b5050565b60008151905060006a636f6e736f6c652e6c6f679050602083016000808483855afa5050505050565b82805461081390610e88565b90600052602060002090601f016020900481019282610835576000855561087c565b82601f1061084e57805160ff191683800117855561087c565b8280016001018555821561087c579182015b8281111561087b578251825591602001919060010190610860565b5b509050610889919061088d565b5090565b5b808211156108a657600081600090555060010161088e565b5090565b60006108bd6108b884610d12565b610ced565b9050828152602081018484840111156108d557600080fd5b6108e0848285610e46565b509392505050565b6000813590506108f7816110b3565b92915050565b600082601f83011261090e57600080fd5b813561091e8482602086016108aa565b91505092915050565b60006020828403121561093957600080fd5b6000610947848285016108e8565b91505092915050565b60006020828403121561096257600080fd5b600082013567ffffffffffffffff81111561097c57600080fd5b610988848285016108fd565b91505092915050565b600061099d8383610b36565b905092915050565b6109ae81610e0a565b82525050565b6109bd81610e0a565b82525050565b60006109ce82610d53565b6109d88185610d76565b9350836020820285016109ea85610d43565b8060005b85811015610a265784840389528151610a078582610991565b9450610a1283610d69565b925060208a019950506001810190506109ee565b50829750879550505050505092915050565b6000610a4382610d5e565b610a4d8185610d92565b9350610a5d818560208601610e55565b610a6681610fd8565b840191505092915050565b6000610a7c82610d5e565b610a868185610da3565b9350610a96818560208601610e55565b610a9f81610fd8565b840191505092915050565b6000610ab7602783610da3565b9150610ac282610fe9565b604082019050919050565b6000610ada600083610d87565b9150610ae582611038565b600082019050919050565b6000610afd602783610da3565b9150610b088261103b565b604082019050919050565b6000610b20601083610da3565b9150610b2b8261108a565b602082019050919050565b6000606083016000830151610b4e60008601826109a5565b5060208301518482036020860152610b668282610a38565b9150506040830151610b7b6040860182610b86565b508091505092915050565b610b8f81610e3c565b82525050565b610b9e81610e3c565b82525050565b6000610baf82610acd565b9150819050919050565b60006020820190508181036000830152610bd381846109c3565b905092915050565b60006020820190508181036000830152610bf58184610a71565b905092915050565b60006060820190508181036000830152610c178186610a71565b9050610c2660208301856109b4565b8181036040830152610c388184610a71565b9050949350505050565b60006040820190508181036000830152610c5c8185610a71565b9050610c6b6020830184610b95565b9392505050565b60006020820190508181036000830152610c8b81610aaa565b9050919050565b60006020820190508181036000830152610cab81610af0565b9050919050565b60006020820190508181036000830152610ccb81610b13565b9050919050565b6000602082019050610ce76000830184610b95565b92915050565b6000610cf7610d08565b9050610d038282610eba565b919050565b6000604051905090565b600067ffffffffffffffff821115610d2d57610d2c610fa9565b5b610d3682610fd8565b9050602081019050919050565b6000819050602082019050919050565b600081519050919050565b600081519050919050565b6000602082019050919050565b600082825260208201905092915050565b600081905092915050565b600082825260208201905092915050565b600082825260208201905092915050565b6000610dbf82610e3c565b9150610dca83610e3c565b9250827fffffffffffffffffffffffffffffffffffffffffffffffffffffffffffffffff03821115610dff57610dfe610f1c565b5b828201905092915050565b6000610e1582610e1c565b9050919050565b600073ffffffffffffffffffffffffffffffffffffffff82169050919050565b6000819050919050565b82818337600083830152505050565b60005b83811015610e73578082015181840152602081019050610e58565b83811115610e82576000848401525b50505050565b60006002820490506001821680610ea057607f821691505b60208210811415610eb457610eb3610f7a565b5b50919050565b610ec382610fd8565b810181811067ffffffffffffffff82111715610ee257610ee1610fa9565b5b80604052505050565b6000610ef682610e3c565b9150610f0183610e3c565b925082610f1157610f10610f4b565b5b828206905092915050565b7f4e487b7100000000000000000000000000000000000000000000000000000000600052601160045260246000fd5b7f4e487b7100000000000000000000000000000000000000000000000000000000600052601260045260246000fd5b7f4e487b7100000000000000000000000000000000000000000000000000000000600052602260045260246000fd5b7f4e487b7100000000000000000000000000000000000000000000000000000000600052604160045260246000fd5b6000601f19601f8301169050919050565b7f4661696c656420746f207769746864726177206d6f6e65792066726f6d20636f60008201527f6e74726163742e00000000000000000000000000000000000000000000000000602082015250565b50565b7f596f7520617265207769746864726177696e67206d6f7265207468616e20796f60008201527f7520686176652100000000000000000000000000000000000000000000000000602082015250565b7f57616974203135206d696e757465732100000000000000000000000000000000600082015250565b6110bc81610e0a565b81146110c757600080fd5b5056fea2646970667358221220d9e1d3711ccccd565ea5edd4bed34cdc6aeed1c2c01ee8a2ee84df7fc83c812664736f6c63430008040033",
  "linkReferences": {},
  "deployedLinkReferences": {}
}